{
  "address": "0x3d2f58eCb39694313395A70Ca7119FB3ccFbcFF7",
  "abi": [
    {
      "inputs": [
        {
          "internalType": "uint256",
          "name": "entranceFee",
          "type": "uint256"
        }
      ],
      "stateMutability": "nonpayable",
      "type": "constructor"
    },
    {
      "inputs": [],
      "name": "Lottery__NotEnoughETH",
      "type": "error"
    },
    {
      "anonymous": false,
      "inputs": [
        {
          "indexed": true,
          "internalType": "address",
          "name": "player",
          "type": "address"
        }
      ],
      "name": "LotteryEnter",
      "type": "event"
    },
    {
      "inputs": [],
      "name": "enterLottery",
      "outputs": [],
      "stateMutability": "payable",
      "type": "function"
    },
    {
      "inputs": [],
      "name": "getEntranceFee",
      "outputs": [
        {
          "internalType": "uint256",
          "name": "",
          "type": "uint256"
        }
      ],
      "stateMutability": "view",
      "type": "function"
    },
    {
      "inputs": [
        {
          "internalType": "uint256",
          "name": "index",
          "type": "uint256"
        }
      ],
      "name": "getPlayer",
      "outputs": [
        {
          "internalType": "address payable",
          "name": "",
          "type": "address"
        }
      ],
      "stateMutability": "view",
      "type": "function"
    }
  ],
  "transactionHash": "0x1c63faa94a70ce13bfab9edc91bf68838f046479a778968ce1bdc7a885901e8a",
  "args": [
    "10"
  ],
  "numDeployments": 1,
  "solcInputHash": "2e161542db0c619dddf3b41dbd8fc9cf",
  "bytecode": "0x60a060405234801561001057600080fd5b506040516104373803806104378339818101604052810190610032919061007b565b8060808181525050506100a8565b600080fd5b6000819050919050565b61005881610045565b811461006357600080fd5b50565b6000815190506100758161004f565b92915050565b60006020828403121561009157610090610040565b5b600061009f84828501610066565b91505092915050565b60805161036f6100c86000396000818160af015260d5015261036f6000f3fe6080604052600436106100345760003560e01c806309bc33a714610039578063c1af578514610064578063e55ae4e81461006e575b600080fd5b34801561004557600080fd5b5061004e6100ab565b60405161005b9190610235565b60405180910390f35b61006c6100d3565b005b34801561007a57600080fd5b5061009560048036038101906100909190610281565b6101d5565b6040516100a291906102ef565b60405180910390f35b60007f0000000000000000000000000000000000000000000000000000000000000000905090565b7f000000000000000000000000000000000000000000000000000000000000000034101561012d576040517f6844f56200000000000000000000000000000000000000000000000000000000815260040160405180910390fd5b6000339080600181540180825580915050600190039060005260206000200160009091909190916101000a81548173ffffffffffffffffffffffffffffffffffffffff021916908373ffffffffffffffffffffffffffffffffffffffff1602179055503373ffffffffffffffffffffffffffffffffffffffff167f1d64fb5ba9f2548c5b98468d58f25b87b9e866afee0122e92d9fe722bf85076c60405160405180910390a2565b60008082815481106101ea576101e961030a565b5b9060005260206000200160009054906101000a900473ffffffffffffffffffffffffffffffffffffffff169050919050565b6000819050919050565b61022f8161021c565b82525050565b600060208201905061024a6000830184610226565b92915050565b600080fd5b61025e8161021c565b811461026957600080fd5b50565b60008135905061027b81610255565b92915050565b60006020828403121561029757610296610250565b5b60006102a58482850161026c565b91505092915050565b600073ffffffffffffffffffffffffffffffffffffffff82169050919050565b60006102d9826102ae565b9050919050565b6102e9816102ce565b82525050565b600060208201905061030460008301846102e0565b92915050565b7f4e487b7100000000000000000000000000000000000000000000000000000000600052603260045260246000fdfea2646970667358221220fe1a2287d59830c04d5da42075217619a050e132213cdf308cdc16dda0dfe44264736f6c63430008130033",
  "devdoc": {
    "kind": "dev",
    "methods": {},
    "version": 1
  },
  "userdoc": {
    "kind": "user",
    "methods": {},
    "version": 1
  },
  "storageLayout": {
    "storage": [
      {
        "astId": 8,
        "contract": "contracts/Lottery.sol:Lottery",
        "label": "players",
        "offset": 0,
        "slot": "0",
        "type": "t_array(t_address_payable)dyn_storage"
      }
    ],
    "types": {
      "t_address_payable": {
        "encoding": "inplace",
        "label": "address payable",
        "numberOfBytes": "20"
      },
      "t_array(t_address_payable)dyn_storage": {
        "base": "t_address_payable",
        "encoding": "dynamic_array",
        "label": "address payable[]",
        "numberOfBytes": "32"
      }
    }
  }
}